{
    "contractName": "Marketplace",
    "abi": [
        {
            "inputs": [],
            "stateMutability": "nonpayable",
            "type": "constructor"
        },
        {
            "inputs": [],
            "name": "NoProceeds",
            "type": "error"
        },
        {
            "inputs": [],
            "name": "NotApprovedForMarketplace",
            "type": "error"
        },
        {
            "inputs": [],
            "name": "NotOwner",
            "type": "error"
        },
        {
            "inputs": [],
            "name": "OwnerTheSameWithBuyer",
            "type": "error"
        },
        {
            "inputs": [],
            "name": "PriceMustBeAboveZero",
            "type": "error"
        },
        {
            "anonymous": false,
            "inputs": [
                {
                    "indexed": true,
                    "internalType": "address",
                    "name": "buyer",
                    "type": "address"
                },
                {
                    "indexed": true,
                    "internalType": "address",
                    "name": "nftAddress",
                    "type": "address"
                },
                {
                    "indexed": true,
                    "internalType": "uint256",
                    "name": "tokenId",
                    "type": "uint256"
                },
                {
                    "indexed": false,
                    "internalType": "uint256",
                    "name": "price",
                    "type": "uint256"
                }
            ],
            "name": "ItemBought",
            "type": "event"
        },
        {
            "anonymous": false,
            "inputs": [
                {
                    "indexed": true,
                    "internalType": "address",
                    "name": "seller",
                    "type": "address"
                },
                {
                    "indexed": true,
                    "internalType": "address",
                    "name": "nftAddress",
                    "type": "address"
                },
                {
                    "indexed": true,
                    "internalType": "uint256",
                    "name": "tokenId",
                    "type": "uint256"
                }
            ],
            "name": "ItemCanceled",
            "type": "event"
        },
        {
            "anonymous": false,
            "inputs": [
                {
                    "indexed": true,
                    "internalType": "address",
                    "name": "seller",
                    "type": "address"
                },
                {
                    "indexed": true,
                    "internalType": "address",
                    "name": "nftAddress",
                    "type": "address"
                },
                {
                    "indexed": true,
                    "internalType": "uint256",
                    "name": "tokenId",
                    "type": "uint256"
                },
                {
                    "indexed": false,
                    "internalType": "uint256",
                    "name": "price",
                    "type": "uint256"
                }
            ],
            "name": "ItemListed",
            "type": "event"
        },
        {
            "inputs": [
                {
                    "internalType": "address",
                    "name": "nftAddress",
                    "type": "address"
                },
                {
                    "internalType": "uint256",
                    "name": "tokenId",
                    "type": "uint256"
                }
            ],
            "name": "buyItem",
            "outputs": [],
            "stateMutability": "payable",
            "type": "function"
        },
        {
            "inputs": [
                {
                    "internalType": "address",
                    "name": "nftAddress",
                    "type": "address"
                },
                {
                    "internalType": "uint256",
                    "name": "tokenId",
                    "type": "uint256"
                }
            ],
            "name": "cancelListing",
            "outputs": [],
            "stateMutability": "nonpayable",
            "type": "function"
        },
        {
            "inputs": [],
            "name": "getAllListings",
            "outputs": [
                {
                    "components": [
                        {
                            "internalType": "address",
                            "name": "nftAddres",
                            "type": "address"
                        },
                        {
                            "internalType": "uint256",
                            "name": "tokenId",
                            "type": "uint256"
                        },
                        {
                            "internalType": "string",
                            "name": "imageURL",
                            "type": "string"
                        },
                        {
                            "internalType": "uint256",
                            "name": "price",
                            "type": "uint256"
                        }
                    ],
                    "internalType": "struct Marketplace.TokenOwner[]",
                    "name": "",
                    "type": "tuple[]"
                }
            ],
            "stateMutability": "view",
            "type": "function"
        },
        {
            "inputs": [
                {
                    "internalType": "address",
                    "name": "ownerAddr",
                    "type": "address"
                }
            ],
            "name": "getOwnerTokens",
            "outputs": [
                {
                    "components": [
                        {
                            "internalType": "address",
                            "name": "nftAddres",
                            "type": "address"
                        },
                        {
                            "internalType": "uint256",
                            "name": "tokenId",
                            "type": "uint256"
                        },
                        {
                            "internalType": "string",
                            "name": "imageURL",
                            "type": "string"
                        },
                        {
                            "internalType": "uint256",
                            "name": "price",
                            "type": "uint256"
                        }
                    ],
                    "internalType": "struct Marketplace.TokenOwner[]",
                    "name": "",
                    "type": "tuple[]"
                }
            ],
            "stateMutability": "view",
            "type": "function"
        },
        {
            "inputs": [
                {
                    "internalType": "address",
                    "name": "seller",
                    "type": "address"
                }
            ],
            "name": "getProceeds",
            "outputs": [
                {
                    "internalType": "uint256",
                    "name": "",
                    "type": "uint256"
                }
            ],
            "stateMutability": "view",
            "type": "function"
        },
        {
            "inputs": [
                {
                    "internalType": "address",
                    "name": "nftAddress",
                    "type": "address"
                },
                {
                    "internalType": "uint256",
                    "name": "tokenId",
                    "type": "uint256"
                }
            ],
            "name": "insertNFT",
            "outputs": [],
            "stateMutability": "nonpayable",
            "type": "function"
        },
        {
            "inputs": [
                {
                    "internalType": "address",
                    "name": "nftAddress",
                    "type": "address"
                },
                {
                    "internalType": "uint256",
                    "name": "tokenId",
                    "type": "uint256"
                },
                {
                    "internalType": "uint256",
                    "name": "price",
                    "type": "uint256"
                }
            ],
            "name": "listItem",
            "outputs": [],
            "stateMutability": "nonpayable",
            "type": "function"
        },
        {
            "inputs": [
                {
                    "internalType": "address",
                    "name": "nftAddress",
                    "type": "address"
                },
                {
                    "internalType": "uint256",
                    "name": "tokenId",
                    "type": "uint256"
                },
                {
                    "internalType": "uint256",
                    "name": "newPrice",
                    "type": "uint256"
                }
            ],
            "name": "updateListing",
            "outputs": [],
            "stateMutability": "nonpayable",
            "type": "function"
        },
        {
            "inputs": [],
            "name": "withdrawProceeds",
            "outputs": [],
            "stateMutability": "nonpayable",
            "type": "function"
        }
    ],
    "bytecode": "608060405234801561001057600080fd5b506001600081905580546001600160a01b0319163317905561106f806100376000396000f3fe6080604052600436106100865760003560e01c80639f37092a116100595780639f37092a1461012b578063ae73ccec1461013e578063b2ddee0614610160578063d63d4af014610180578063f772adf1146101a057600080fd5b806302299dd01461008b57806330cfeda9146100ad57806389bfd38f146100f65780639038e69314610116575b600080fd5b34801561009757600080fd5b506100ab6100a6366004610cb5565b6101c0565b005b3480156100b957600080fd5b506100e36100c8366004610ce1565b6001600160a01b031660009081526002602052604090205490565b6040519081526020015b60405180910390f35b34801561010257600080fd5b506100ab610111366004610d05565b6103a5565b34801561012257600080fd5b506100ab610656565b6100ab610139366004610cb5565b610722565b34801561014a57600080fd5b506101536107dc565b6040516100ed9190610d5e565b34801561016c57600080fd5b506100ab61017b366004610cb5565b6108f7565b34801561018c57600080fd5b5061015361019b366004610ce1565b6109e0565b3480156101ac57600080fd5b506100ab6101bb366004610d05565b610b11565b6001546001600160a01b031633146102365760405162461bcd60e51b815260206004820152602e60248201527f4f6e6c7920746865206d61726b6574706c6163652773206f776e65722063616e60448201526d1030b232103732bb9027232a399760911b60648201526084015b60405180910390fd5b3360009081526003602090815260409182902082516080810184526001600160a01b038616808252928101859052835163c87b56dd60e01b8152600481018690528694929391928301919063c87b56dd90602401600060405180830381865afa1580156102a7573d6000803e3d6000fd5b505050506040513d6000823e601f3d908101601f191682016040526102cf9190810190610e27565b81526000602091820181905283546001808201865594825290829020835160049092020180546001600160a01b0319166001600160a01b039092169190911781559082015192810192909255604081015190919060028201906103329082610f5c565b506060919091015160039091015560405163095ea7b360e01b8152306004820152602481018390526001600160a01b0382169063095ea7b390604401600060405180830381600087803b15801561038857600080fd5b505af115801561039c573d6000803e3d6000fd5b50505050505050565b6040516331a9108f60e11b81526004810183905283908390339083906000906001600160a01b03831690636352211e90602401602060405180830381865afa1580156103f5573d6000803e3d6000fd5b505050506040513d601f19601f82011682018060405250810190610419919061101c565b9050806001600160a01b0316836001600160a01b03161461044d576040516330cd747160e01b815260040160405180910390fd5b6000861161046e5760405163e1abbfc560e01b815260040160405180910390fd5b60405163020604bf60e21b81526004810188905288906000906001600160a01b0383169063081812fc90602401602060405180830381865afa1580156104b8573d6000803e3d6000fd5b505050506040513d601f19601f820116820180604052508101906104dc919061101c565b90506001600160a01b038116301461050757604051634be3a2c560e01b815260040160405180910390fd5b604080516080810182526001600160a01b038c16808252602082018c9052825163c87b56dd60e01b815260048082018e9052938301919063c87b56dd90602401600060405180830381865afa158015610564573d6000803e3d6000fd5b505050506040513d6000823e601f3d908101601f1916820160405261058c9190810190610e27565b815260209081018b9052825460018082018555600094855293829020835160049092020180546001600160a01b0319166001600160a01b039092169190911781559082015192810192909255604081015190919060028201906105ef9082610f5c565b50606082015181600301555050888a6001600160a01b0316336001600160a01b03167fd547e933094f12a9159076970143ebe73234e64480317844b0dcb36117116de48b60405161064291815260200190565b60405180910390a450505050505050505050565b33600090815260026020526040902054806106845760405163c4d8fa8760e01b815260040160405180910390fd5b336000818152600260205260408082208290555190919083908381818185875af1925050503d80600081146106d5576040519150601f19603f3d011682016040523d82523d6000602084013e6106da565b606091505b505090508061071e5760405162461bcd60e51b815260206004820152601060248201526f5472616e73666572206661696c65642160801b604482015260640161022d565b5050565b6040516331a9108f60e11b81526004810182905282908290339083906000906001600160a01b03831690636352211e90602401602060405180830381865afa158015610772573d6000803e3d6000fd5b505050506040513d601f19601f82011682018060405250810190610796919061101c565b9050806001600160a01b0316836001600160a01b0316036107ca57604051631f85333f60e11b815260040160405180910390fd5b6107d2610c44565b61039c6001600055565b60606004805480602002602001604051908101604052809291908181526020016000905b828210156108ee576000848152602090819020604080516080810182526004860290920180546001600160a01b031683526001810154938301939093526002830180549293929184019161085390610ed4565b80601f016020809104026020016040519081016040528092919081815260200182805461087f90610ed4565b80156108cc5780601f106108a1576101008083540402835291602001916108cc565b820191906000526020600020905b8154815290600101906020018083116108af57829003601f168201915b5050505050815260200160038201548152505081526020019060010190610800565b50505050905090565b6040516331a9108f60e11b81526004810182905282908290339083906000906001600160a01b03831690636352211e90602401602060405180830381865afa158015610947573d6000803e3d6000fd5b505050506040513d601f19601f8201168201806040525081019061096b919061101c565b9050806001600160a01b0316836001600160a01b03161461099f576040516330cd747160e01b815260040160405180910390fd5b60405186906001600160a01b0389169033907f9ba1a3cb55ce8d63d072a886f94d2a744f50cddf82128e897d0661f5ec62315890600090a450505050505050565b6001600160a01b0381166000908152600360209081526040808320805482518185028101850190935280835260609492939192909184015b82821015610b06576000848152602090819020604080516080810182526004860290920180546001600160a01b0316835260018101549383019390935260028301805492939291840191610a6b90610ed4565b80601f0160208091040260200160405190810160405280929190818152602001828054610a9790610ed4565b8015610ae45780601f10610ab957610100808354040283529160200191610ae4565b820191906000526020600020905b815481529060010190602001808311610ac757829003601f168201915b5050505050815260200160038201548152505081526020019060010190610a18565b505050509050919050565b610b19610c44565b6040516331a9108f60e11b81526004810183905283908390339083906000906001600160a01b03831690636352211e90602401602060405180830381865afa158015610b69573d6000803e3d6000fd5b505050506040513d601f19601f82011682018060405250810190610b8d919061101c565b9050806001600160a01b0316836001600160a01b031614610bc1576040516330cd747160e01b815260040160405180910390fd5b60008611610be25760405163e1abbfc560e01b815260040160405180910390fd5b86886001600160a01b0316336001600160a01b03167fd547e933094f12a9159076970143ebe73234e64480317844b0dcb36117116de489604051610c2891815260200190565b60405180910390a45050505050610c3f6001600055565b505050565b600260005403610c965760405162461bcd60e51b815260206004820152601f60248201527f5265656e7472616e637947756172643a207265656e7472616e742063616c6c00604482015260640161022d565b6002600055565b6001600160a01b0381168114610cb257600080fd5b50565b60008060408385031215610cc857600080fd5b8235610cd381610c9d565b946020939093013593505050565b600060208284031215610cf357600080fd5b8135610cfe81610c9d565b9392505050565b600080600060608486031215610d1a57600080fd5b8335610d2581610c9d565b95602085013595506040909401359392505050565b60005b83811015610d55578181015183820152602001610d3d565b50506000910152565b60006020808301818452808551808352604092508286019150828160051b87010184880160005b83811015610e0357888303603f19018552815180516001600160a01b031684528781015188850152868101516080888601819052815190860181905260a09190610dd481848901848e01610d3a565b606093840151938701939093525095880195601f91909101601f19169093019092019190860190600101610d85565b509098975050505050505050565b634e487b7160e01b600052604160045260246000fd5b600060208284031215610e3957600080fd5b815167ffffffffffffffff80821115610e5157600080fd5b818401915084601f830112610e6557600080fd5b815181811115610e7757610e77610e11565b604051601f8201601f19908116603f01168101908382118183101715610e9f57610e9f610e11565b81604052828152876020848701011115610eb857600080fd5b610ec9836020830160208801610d3a565b979650505050505050565b600181811c90821680610ee857607f821691505b602082108103610f0857634e487b7160e01b600052602260045260246000fd5b50919050565b601f821115610c3f57600081815260208120601f850160051c81016020861015610f355750805b601f850160051c820191505b81811015610f5457828155600101610f41565b505050505050565b815167ffffffffffffffff811115610f7657610f76610e11565b610f8a81610f848454610ed4565b84610f0e565b602080601f831160018114610fbf5760008415610fa75750858301515b600019600386901b1c1916600185901b178555610f54565b600085815260208120601f198616915b82811015610fee57888601518255948401946001909101908401610fcf565b508582101561100c5787850151600019600388901b60f8161c191681555b5050505050600190811b01905550565b60006020828403121561102e57600080fd5b8151610cfe81610c9d56fea264697066735822122041fd0b961955c2167b6b40cf58a192b707db3073cd68faf8c2f885456d99073964736f6c63430008130033",
    "sourcePath": "/home/andu/Documents/nft-marketplace/contracts/Marketplace.sol",
    "compiler": {
        "name": "solc",
        "version": "0.8.19+commit.7dd6d404"
    },
    "functionHashes": {
        "buyItem(address,uint256)": "9f37092a",
        "cancelListing(address,uint256)": "b2ddee06",
        "getAllListings()": "ae73ccec",
        "getOwnerTokens(address)": "d63d4af0",
        "getProceeds(address)": "30cfeda9",
        "insertNFT(address,uint256)": "02299dd0",
        "listItem(address,uint256,uint256)": "89bfd38f",
        "updateListing(address,uint256,uint256)": "f772adf1",
        "withdrawProceeds()": "9038e693"
    },
    "gasEstimates": {
        "creation": {
            "codeDepositCost": "841400",
            "executionCost": "47221",
            "totalCost": "888621"
        },
        "external": {
            "buyItem(address,uint256)": "infinite",
            "cancelListing(address,uint256)": "infinite",
            "getAllListings()": "infinite",
            "getOwnerTokens(address)": "infinite",
            "getProceeds(address)": "2543",
            "insertNFT(address,uint256)": "infinite",
            "listItem(address,uint256,uint256)": "infinite",
            "updateListing(address,uint256,uint256)": "infinite",
            "withdrawProceeds()": "infinite"
        }
    }
}